{
  "address": "0xdaf21e9fbC4Fac395Ede4603474B3747Cb2947eD",
  "abi": [
    {
      "inputs": [
        {
          "internalType": "address",
          "name": "_CryptoDevToken",
          "type": "address"
        }
      ],
      "stateMutability": "nonpayable",
      "type": "constructor"
    },
    {
      "anonymous": false,
      "inputs": [
        {
          "indexed": true,
          "internalType": "address",
          "name": "owner",
          "type": "address"
        },
        {
          "indexed": true,
          "internalType": "address",
          "name": "spender",
          "type": "address"
        },
        {
          "indexed": false,
          "internalType": "uint256",
          "name": "value",
          "type": "uint256"
        }
      ],
      "name": "Approval",
      "type": "event"
    },
    {
      "anonymous": false,
      "inputs": [
        {
          "indexed": true,
          "internalType": "address",
          "name": "from",
          "type": "address"
        },
        {
          "indexed": true,
          "internalType": "address",
          "name": "to",
          "type": "address"
        },
        {
          "indexed": false,
          "internalType": "uint256",
          "name": "value",
          "type": "uint256"
        }
      ],
      "name": "Transfer",
      "type": "event"
    },
    {
      "inputs": [
        {
          "internalType": "uint256",
          "name": "_tokenAmount",
          "type": "uint256"
        }
      ],
      "name": "addLiquidity",
      "outputs": [
        {
          "internalType": "uint256",
          "name": "",
          "type": "uint256"
        }
      ],
      "stateMutability": "payable",
      "type": "function"
    },
    {
      "inputs": [
        {
          "internalType": "address",
          "name": "owner",
          "type": "address"
        },
        {
          "internalType": "address",
          "name": "spender",
          "type": "address"
        }
      ],
      "name": "allowance",
      "outputs": [
        {
          "internalType": "uint256",
          "name": "",
          "type": "uint256"
        }
      ],
      "stateMutability": "view",
      "type": "function"
    },
    {
      "inputs": [
        {
          "internalType": "address",
          "name": "spender",
          "type": "address"
        },
        {
          "internalType": "uint256",
          "name": "amount",
          "type": "uint256"
        }
      ],
      "name": "approve",
      "outputs": [
        {
          "internalType": "bool",
          "name": "",
          "type": "bool"
        }
      ],
      "stateMutability": "nonpayable",
      "type": "function"
    },
    {
      "inputs": [
        {
          "internalType": "address",
          "name": "account",
          "type": "address"
        }
      ],
      "name": "balanceOf",
      "outputs": [
        {
          "internalType": "uint256",
          "name": "",
          "type": "uint256"
        }
      ],
      "stateMutability": "view",
      "type": "function"
    },
    {
      "inputs": [],
      "name": "cryptoDevTokenAddress",
      "outputs": [
        {
          "internalType": "address",
          "name": "",
          "type": "address"
        }
      ],
      "stateMutability": "view",
      "type": "function"
    },
    {
      "inputs": [
        {
          "internalType": "uint256",
          "name": "_tokenSold",
          "type": "uint256"
        },
        {
          "internalType": "uint256",
          "name": "_minEth",
          "type": "uint256"
        }
      ],
      "name": "cryptoDevTokenToEth",
      "outputs": [],
      "stateMutability": "nonpayable",
      "type": "function"
    },
    {
      "inputs": [],
      "name": "decimals",
      "outputs": [
        {
          "internalType": "uint8",
          "name": "",
          "type": "uint8"
        }
      ],
      "stateMutability": "view",
      "type": "function"
    },
    {
      "inputs": [
        {
          "internalType": "address",
          "name": "spender",
          "type": "address"
        },
        {
          "internalType": "uint256",
          "name": "subtractedValue",
          "type": "uint256"
        }
      ],
      "name": "decreaseAllowance",
      "outputs": [
        {
          "internalType": "bool",
          "name": "",
          "type": "bool"
        }
      ],
      "stateMutability": "nonpayable",
      "type": "function"
    },
    {
      "inputs": [
        {
          "internalType": "uint256",
          "name": "_minTokens",
          "type": "uint256"
        }
      ],
      "name": "ethToCryptoDevToken",
      "outputs": [],
      "stateMutability": "payable",
      "type": "function"
    },
    {
      "inputs": [
        {
          "internalType": "uint256",
          "name": "inputAmount",
          "type": "uint256"
        },
        {
          "internalType": "uint256",
          "name": "inputReserve",
          "type": "uint256"
        },
        {
          "internalType": "uint256",
          "name": "outpurReseve",
          "type": "uint256"
        }
      ],
      "name": "getAmountOfTokens",
      "outputs": [
        {
          "internalType": "uint256",
          "name": "",
          "type": "uint256"
        }
      ],
      "stateMutability": "pure",
      "type": "function"
    },
    {
      "inputs": [],
      "name": "getReserve",
      "outputs": [
        {
          "internalType": "uint256",
          "name": "",
          "type": "uint256"
        }
      ],
      "stateMutability": "view",
      "type": "function"
    },
    {
      "inputs": [
        {
          "internalType": "address",
          "name": "spender",
          "type": "address"
        },
        {
          "internalType": "uint256",
          "name": "addedValue",
          "type": "uint256"
        }
      ],
      "name": "increaseAllowance",
      "outputs": [
        {
          "internalType": "bool",
          "name": "",
          "type": "bool"
        }
      ],
      "stateMutability": "nonpayable",
      "type": "function"
    },
    {
      "inputs": [],
      "name": "name",
      "outputs": [
        {
          "internalType": "string",
          "name": "",
          "type": "string"
        }
      ],
      "stateMutability": "view",
      "type": "function"
    },
    {
      "inputs": [
        {
          "internalType": "uint256",
          "name": "_amount",
          "type": "uint256"
        }
      ],
      "name": "removeLiquidity",
      "outputs": [
        {
          "internalType": "uint256",
          "name": "",
          "type": "uint256"
        },
        {
          "internalType": "uint256",
          "name": "",
          "type": "uint256"
        }
      ],
      "stateMutability": "nonpayable",
      "type": "function"
    },
    {
      "inputs": [],
      "name": "symbol",
      "outputs": [
        {
          "internalType": "string",
          "name": "",
          "type": "string"
        }
      ],
      "stateMutability": "view",
      "type": "function"
    },
    {
      "inputs": [],
      "name": "totalSupply",
      "outputs": [
        {
          "internalType": "uint256",
          "name": "",
          "type": "uint256"
        }
      ],
      "stateMutability": "view",
      "type": "function"
    },
    {
      "inputs": [
        {
          "internalType": "address",
          "name": "to",
          "type": "address"
        },
        {
          "internalType": "uint256",
          "name": "amount",
          "type": "uint256"
        }
      ],
      "name": "transfer",
      "outputs": [
        {
          "internalType": "bool",
          "name": "",
          "type": "bool"
        }
      ],
      "stateMutability": "nonpayable",
      "type": "function"
    },
    {
      "inputs": [
        {
          "internalType": "address",
          "name": "from",
          "type": "address"
        },
        {
          "internalType": "address",
          "name": "to",
          "type": "address"
        },
        {
          "internalType": "uint256",
          "name": "amount",
          "type": "uint256"
        }
      ],
      "name": "transferFrom",
      "outputs": [
        {
          "internalType": "bool",
          "name": "",
          "type": "bool"
        }
      ],
      "stateMutability": "nonpayable",
      "type": "function"
    }
  ],
  "transactionHash": "0xd60ca2a8e18d7bff686152166450c94b71ecf65e92e67863babc8bbdcc6ff283",
  "args": [
    "0x8b64e5F22Ad0Fac5A8aCB9560e43d4b52C8CA358"
  ],
  "numDeployments": 1,
  "solcInputHash": "090a553e3ad1f73e0c85a56be3df17a4",
  "bytecode": "0x60806040523480156200001157600080fd5b5060405162002c5338038062002c53833981810160405281019062000037919062000259565b6040518060400160405280601281526020017f43727970746f446576204c5020546f6b656e00000000000000000000000000008152506040518060400160405280600481526020017f43444c50000000000000000000000000000000000000000000000000000000008152508160039080519060200190620000bb92919062000192565b508060049080519060200190620000d492919062000192565b505050600073ffffffffffffffffffffffffffffffffffffffff168173ffffffffffffffffffffffffffffffffffffffff1614156200014a576040517f08c379a00000000000000000000000000000000000000000000000000000000081526004016200014190620002ac565b60405180910390fd5b80600560006101000a81548173ffffffffffffffffffffffffffffffffffffffff021916908373ffffffffffffffffffffffffffffffffffffffff16021790555050620003e1565b828054620001a09062000313565b90600052602060002090601f016020900481019282620001c4576000855562000210565b82601f10620001df57805160ff191683800117855562000210565b8280016001018555821562000210579182015b828111156200020f578251825591602001919060010190620001f2565b5b5090506200021f919062000223565b5090565b5b808211156200023e57600081600090555060010162000224565b5090565b6000815190506200025381620003c7565b92915050565b6000602082840312156200026c57600080fd5b60006200027c8482850162000242565b91505092915050565b600062000294602483620002ce565b9150620002a18262000378565b604082019050919050565b60006020820190508181036000830152620002c78162000285565b9050919050565b600082825260208201905092915050565b6000620002ec82620002f3565b9050919050565b600073ffffffffffffffffffffffffffffffffffffffff82169050919050565b600060028204905060018216806200032c57607f821691505b6020821081141562000343576200034262000349565b5b50919050565b7f4e487b7100000000000000000000000000000000000000000000000000000000600052602260045260246000fd5b7f546f6b656e206164647265737320706173736564206973206e756c6c2061646460008201527f7265737300000000000000000000000000000000000000000000000000000000602082015250565b620003d281620002df565b8114620003de57600080fd5b50565b61286280620003f16000396000f3fe6080604052600436106101095760003560e01c806370a08231116100955780639e7a2922116100645780639e7a2922146103ad578063a457c2d7146103d8578063a9059cbb14610415578063dd62ed3e14610452578063f0566bb71461048f57610109565b806370a08231146102ca5780637386479e1461030757806395d89b41146103445780639c8f9f231461036f57610109565b8063313ce567116100dc578063313ce567146101de578063395093511461020957806351c6590a1461024657806359bf5d39146102765780636c25a25a146102a157610109565b806306fdde031461010e578063095ea7b31461013957806318160ddd1461017657806323b872dd146101a1575b600080fd5b34801561011a57600080fd5b506101236104ab565b6040516101309190611e7a565b60405180910390f35b34801561014557600080fd5b50610160600480360381019061015b91906119a2565b61053d565b60405161016d9190611e5f565b60405180910390f35b34801561018257600080fd5b5061018b610560565b60405161019891906120bc565b60405180910390f35b3480156101ad57600080fd5b506101c860048036038101906101c39190611953565b61056a565b6040516101d59190611e5f565b60405180910390f35b3480156101ea57600080fd5b506101f3610599565b6040516102009190612100565b60405180910390f35b34801561021557600080fd5b50610230600480360381019061022b91906119a2565b6105a2565b60405161023d9190611e5f565b60405180910390f35b610260600480360381019061025b9190611a07565b6105d9565b60405161026d91906120bc565b60405180910390f35b34801561028257600080fd5b5061028b610819565b60405161029891906120bc565b60405180910390f35b3480156102ad57600080fd5b506102c860048036038101906102c39190611a59565b6108cb565b005b3480156102d657600080fd5b506102f160048036038101906102ec91906118ee565b610a2e565b6040516102fe91906120bc565b60405180910390f35b34801561031357600080fd5b5061032e60048036038101906103299190611a95565b610a76565b60405161033b91906120bc565b60405180910390f35b34801561035057600080fd5b50610359610b27565b6040516103669190611e7a565b60405180910390f35b34801561037b57600080fd5b5061039660048036038101906103919190611a07565b610bb9565b6040516103a49291906120d7565b60405180910390f35b3480156103b957600080fd5b506103c2610e14565b6040516103cf9190611de4565b60405180910390f35b3480156103e457600080fd5b506103ff60048036038101906103fa91906119a2565b610e3a565b60405161040c9190611e5f565b60405180910390f35b34801561042157600080fd5b5061043c600480360381019061043791906119a2565b610eb1565b6040516104499190611e5f565b60405180910390f35b34801561045e57600080fd5b5061047960048036038101906104749190611917565b610ed4565b60405161048691906120bc565b60405180910390f35b6104a960048036038101906104a49190611a07565b610f5b565b005b6060600380546104ba906122df565b80601f01602080910402602001604051908101604052809291908181526020018280546104e6906122df565b80156105335780601f1061050857610100808354040283529160200191610533565b820191906000526020600020905b81548152906001019060200180831161051657829003601f168201915b5050505050905090565b600080610548611079565b9050610555818585611081565b600191505092915050565b6000600254905090565b600080610575611079565b905061058285828561124c565b61058d8585856112d8565b60019150509392505050565b60006012905090565b6000806105ad611079565b90506105ce8185856105bf8589610ed4565b6105c99190612142565b611081565b600191505092915050565b60008060006105e6610819565b14156106b057600560009054906101000a900473ffffffffffffffffffffffffffffffffffffffff1673ffffffffffffffffffffffffffffffffffffffff166323b872dd3330866040518463ffffffff1660e01b815260040161064b93929190611dff565b602060405180830381600087803b15801561066557600080fd5b505af1158015610679573d6000803e3d6000fd5b505050506040513d601f19601f8201168201806040525081019061069d91906119de565b504790506106ab3382611559565b610810565b600034476106be9190612223565b905060006106ca610819565b905060008282346106db91906121c9565b6106e59190612198565b90508086101561072a576040517f08c379a00000000000000000000000000000000000000000000000000000000081526004016107219061203c565b60405180910390fd5b600560009054906101000a900473ffffffffffffffffffffffffffffffffffffffff1673ffffffffffffffffffffffffffffffffffffffff166323b872dd3330846040518463ffffffff1660e01b815260040161078993929190611dff565b602060405180830381600087803b1580156107a357600080fd5b505af11580156107b7573d6000803e3d6000fd5b505050506040513d601f19601f820116820180604052508101906107db91906119de565b5060006107e6610560565b90508381346107f591906121c9565b6107ff9190612198565b945061080b3386611559565b505050505b80915050919050565b6000600560009054906101000a900473ffffffffffffffffffffffffffffffffffffffff1673ffffffffffffffffffffffffffffffffffffffff166370a08231306040518263ffffffff1660e01b81526004016108769190611de4565b60206040518083038186803b15801561088e57600080fd5b505afa1580156108a2573d6000803e3d6000fd5b505050506040513d601f19601f820116820180604052508101906108c69190611a30565b905090565b60006108d5610819565b9050600047905060006108e9858484610a76565b90508381101561092e576040517f08c379a000000000000000000000000000000000000000000000000000000000815260040161092590611fdc565b60405180910390fd5b600560009054906101000a900473ffffffffffffffffffffffffffffffffffffffff1673ffffffffffffffffffffffffffffffffffffffff166323b872dd3330886040518463ffffffff1660e01b815260040161098d93929190611dff565b602060405180830381600087803b1580156109a757600080fd5b505af11580156109bb573d6000803e3d6000fd5b505050506040513d601f19601f820116820180604052508101906109df91906119de565b503373ffffffffffffffffffffffffffffffffffffffff166108fc829081150290604051600060405180830381858888f19350505050158015610a26573d6000803e3d6000fd5b505050505050565b60008060008373ffffffffffffffffffffffffffffffffffffffff1673ffffffffffffffffffffffffffffffffffffffff168152602001908152602001600020549050919050565b60008083118015610a875750600082115b610ac6576040517f08c379a0000000000000000000000000000000000000000000000000000000008152600401610abd90611fbc565b60405180910390fd5b60006064606386610ad791906121c9565b610ae19190612198565b84610aec9190612142565b6064606387610afb91906121c9565b610b059190612198565b84610b1091906121c9565b610b1a9190612198565b9050809150509392505050565b606060048054610b36906122df565b80601f0160208091040260200160405190810160405280929190818152602001828054610b62906122df565b8015610baf5780601f10610b8457610100808354040283529160200191610baf565b820191906000526020600020905b815481529060010190602001808311610b9257829003601f168201915b5050505050905090565b60008060008311610bff576040517f08c379a0000000000000000000000000000000000000000000000000000000008152600401610bf690611ebc565b60405180910390fd5b82610c0933610a2e565b1015610c4a576040517f08c379a0000000000000000000000000000000000000000000000000000000008152600401610c4190611f3c565b60405180910390fd5b6000610c54610560565b905060004790506000610c65610819565b90506000838388610c7691906121c9565b610c809190612198565b90506000848389610c9191906121c9565b610c9b9190612198565b9050610ca733896116b9565b60003373ffffffffffffffffffffffffffffffffffffffff1683604051610ccd90611dcf565b60006040518083038185875af1925050503d8060008114610d0a576040519150601f19603f3d011682016040523d82523d6000602084013e610d0f565b606091505b5050905080610d53576040517f08c379a0000000000000000000000000000000000000000000000000000000008152600401610d4a90611f1c565b60405180910390fd5b600560009054906101000a900473ffffffffffffffffffffffffffffffffffffffff1673ffffffffffffffffffffffffffffffffffffffff1663a9059cbb33846040518363ffffffff1660e01b8152600401610db0929190611e36565b602060405180830381600087803b158015610dca57600080fd5b505af1158015610dde573d6000803e3d6000fd5b505050506040513d601f19601f82011682018060405250810190610e0291906119de565b50828297509750505050505050915091565b600560009054906101000a900473ffffffffffffffffffffffffffffffffffffffff1681565b600080610e45611079565b90506000610e538286610ed4565b905083811015610e98576040517f08c379a0000000000000000000000000000000000000000000000000000000008152600401610e8f9061207c565b60405180910390fd5b610ea58286868403611081565b60019250505092915050565b600080610ebc611079565b9050610ec98185856112d8565b600191505092915050565b6000600160008473ffffffffffffffffffffffffffffffffffffffff1673ffffffffffffffffffffffffffffffffffffffff16815260200190815260200160002060008373ffffffffffffffffffffffffffffffffffffffff1673ffffffffffffffffffffffffffffffffffffffff16815260200190815260200160002054905092915050565b6000610f65610819565b90506000610f7f343447610f799190612223565b84610a76565b905082811015610fc4576040517f08c379a0000000000000000000000000000000000000000000000000000000008152600401610fbb90611f9c565b60405180910390fd5b600560009054906101000a900473ffffffffffffffffffffffffffffffffffffffff1673ffffffffffffffffffffffffffffffffffffffff1663a9059cbb33836040518363ffffffff1660e01b8152600401611021929190611e36565b602060405180830381600087803b15801561103b57600080fd5b505af115801561104f573d6000803e3d6000fd5b505050506040513d601f19601f8201168201806040525081019061107391906119de565b50505050565b600033905090565b600073ffffffffffffffffffffffffffffffffffffffff168373ffffffffffffffffffffffffffffffffffffffff1614156110f1576040517f08c379a00000000000000000000000000000000000000000000000000000000081526004016110e89061205c565b60405180910390fd5b600073ffffffffffffffffffffffffffffffffffffffff168273ffffffffffffffffffffffffffffffffffffffff161415611161576040517f08c379a000000000000000000000000000000000000000000000000000000000815260040161115890611efc565b60405180910390fd5b80600160008573ffffffffffffffffffffffffffffffffffffffff1673ffffffffffffffffffffffffffffffffffffffff16815260200190815260200160002060008473ffffffffffffffffffffffffffffffffffffffff1673ffffffffffffffffffffffffffffffffffffffff168152602001908152602001600020819055508173ffffffffffffffffffffffffffffffffffffffff168373ffffffffffffffffffffffffffffffffffffffff167f8c5be1e5ebec7d5bd14f71427d1e84f3dd0314c0f7b2291e5b200ac8c7c3b9258360405161123f91906120bc565b60405180910390a3505050565b60006112588484610ed4565b90507fffffffffffffffffffffffffffffffffffffffffffffffffffffffffffffffff81146112d257818110156112c4576040517f08c379a00000000000000000000000000000000000000000000000000000000081526004016112bb90611f5c565b60405180910390fd5b6112d18484848403611081565b5b50505050565b600073ffffffffffffffffffffffffffffffffffffffff168373ffffffffffffffffffffffffffffffffffffffff161415611348576040517f08c379a000000000000000000000000000000000000000000000000000000000815260040161133f9061201c565b60405180910390fd5b600073ffffffffffffffffffffffffffffffffffffffff168273ffffffffffffffffffffffffffffffffffffffff1614156113b8576040517f08c379a00000000000000000000000000000000000000000000000000000000081526004016113af90611e9c565b60405180910390fd5b6113c3838383611890565b60008060008573ffffffffffffffffffffffffffffffffffffffff1673ffffffffffffffffffffffffffffffffffffffff16815260200190815260200160002054905081811015611449576040517f08c379a000000000000000000000000000000000000000000000000000000000815260040161144090611f7c565b60405180910390fd5b8181036000808673ffffffffffffffffffffffffffffffffffffffff1673ffffffffffffffffffffffffffffffffffffffff16815260200190815260200160002081905550816000808573ffffffffffffffffffffffffffffffffffffffff1673ffffffffffffffffffffffffffffffffffffffff16815260200190815260200160002060008282546114dc9190612142565b925050819055508273ffffffffffffffffffffffffffffffffffffffff168473ffffffffffffffffffffffffffffffffffffffff167fddf252ad1be2c89b69c2b068fc378daa952ba7f163c4a11628f55a4df523b3ef8460405161154091906120bc565b60405180910390a3611553848484611895565b50505050565b600073ffffffffffffffffffffffffffffffffffffffff168273ffffffffffffffffffffffffffffffffffffffff1614156115c9576040517f08c379a00000000000000000000000000000000000000000000000000000000081526004016115c09061209c565b60405180910390fd5b6115d560008383611890565b80600260008282546115e79190612142565b92505081905550806000808473ffffffffffffffffffffffffffffffffffffffff1673ffffffffffffffffffffffffffffffffffffffff168152602001908152602001600020600082825461163c9190612142565b925050819055508173ffffffffffffffffffffffffffffffffffffffff16600073ffffffffffffffffffffffffffffffffffffffff167fddf252ad1be2c89b69c2b068fc378daa952ba7f163c4a11628f55a4df523b3ef836040516116a191906120bc565b60405180910390a36116b560008383611895565b5050565b600073ffffffffffffffffffffffffffffffffffffffff168273ffffffffffffffffffffffffffffffffffffffff161415611729576040517f08c379a000000000000000000000000000000000000000000000000000000000815260040161172090611ffc565b60405180910390fd5b61173582600083611890565b60008060008473ffffffffffffffffffffffffffffffffffffffff1673ffffffffffffffffffffffffffffffffffffffff168152602001908152602001600020549050818110156117bb576040517f08c379a00000000000000000000000000000000000000000000000000000000081526004016117b290611edc565b60405180910390fd5b8181036000808573ffffffffffffffffffffffffffffffffffffffff1673ffffffffffffffffffffffffffffffffffffffff1681526020019081526020016000208190555081600260008282546118129190612223565b92505081905550600073ffffffffffffffffffffffffffffffffffffffff168373ffffffffffffffffffffffffffffffffffffffff167fddf252ad1be2c89b69c2b068fc378daa952ba7f163c4a11628f55a4df523b3ef8460405161187791906120bc565b60405180910390a361188b83600084611895565b505050565b505050565b505050565b6000813590506118a9816127e7565b92915050565b6000815190506118be816127fe565b92915050565b6000813590506118d381612815565b92915050565b6000815190506118e881612815565b92915050565b60006020828403121561190057600080fd5b600061190e8482850161189a565b91505092915050565b6000806040838503121561192a57600080fd5b60006119388582860161189a565b92505060206119498582860161189a565b9150509250929050565b60008060006060848603121561196857600080fd5b60006119768682870161189a565b93505060206119878682870161189a565b9250506040611998868287016118c4565b9150509250925092565b600080604083850312156119b557600080fd5b60006119c38582860161189a565b92505060206119d4858286016118c4565b9150509250929050565b6000602082840312156119f057600080fd5b60006119fe848285016118af565b91505092915050565b600060208284031215611a1957600080fd5b6000611a27848285016118c4565b91505092915050565b600060208284031215611a4257600080fd5b6000611a50848285016118d9565b91505092915050565b60008060408385031215611a6c57600080fd5b6000611a7a858286016118c4565b9250506020611a8b858286016118c4565b9150509250929050565b600080600060608486031215611aaa57600080fd5b6000611ab8868287016118c4565b9350506020611ac9868287016118c4565b9250506040611ada868287016118c4565b9150509250925092565b611aed81612257565b82525050565b611afc81612269565b82525050565b6000611b0d8261211b565b611b178185612131565b9350611b278185602086016122ac565b611b308161239e565b840191505092915050565b6000611b48602383612131565b9150611b53826123af565b604082019050919050565b6000611b6b601383612131565b9150611b76826123fe565b602082019050919050565b6000611b8e602283612131565b9150611b9982612427565b604082019050919050565b6000611bb1602283612131565b9150611bbc82612476565b604082019050919050565b6000611bd4600f83612131565b9150611bdf826124c5565b602082019050919050565b6000611bf7601f83612131565b9150611c02826124ee565b602082019050919050565b6000611c1a601d83612131565b9150611c2582612517565b602082019050919050565b6000611c3d602683612131565b9150611c4882612540565b604082019050919050565b6000611c60602483612131565b9150611c6b8261258f565b604082019050919050565b6000611c83601083612131565b9150611c8e826125de565b602082019050919050565b6000611ca6601283612131565b9150611cb182612607565b602082019050919050565b6000611cc9602183612131565b9150611cd482612630565b604082019050919050565b6000611cec602583612131565b9150611cf78261267f565b604082019050919050565b6000611d0f600083612126565b9150611d1a826126ce565b600082019050919050565b6000611d32602183612131565b9150611d3d826126d1565b604082019050919050565b6000611d55602483612131565b9150611d6082612720565b604082019050919050565b6000611d78602583612131565b9150611d838261276f565b604082019050919050565b6000611d9b601f83612131565b9150611da6826127be565b602082019050919050565b611dba81612295565b82525050565b611dc98161229f565b82525050565b6000611dda82611d02565b9150819050919050565b6000602082019050611df96000830184611ae4565b92915050565b6000606082019050611e146000830186611ae4565b611e216020830185611ae4565b611e2e6040830184611db1565b949350505050565b6000604082019050611e4b6000830185611ae4565b611e586020830184611db1565b9392505050565b6000602082019050611e746000830184611af3565b92915050565b60006020820190508181036000830152611e948184611b02565b905092915050565b60006020820190508181036000830152611eb581611b3b565b9050919050565b60006020820190508181036000830152611ed581611b5e565b9050919050565b60006020820190508181036000830152611ef581611b81565b9050919050565b60006020820190508181036000830152611f1581611ba4565b9050919050565b60006020820190508181036000830152611f3581611bc7565b9050919050565b60006020820190508181036000830152611f5581611bea565b9050919050565b60006020820190508181036000830152611f7581611c0d565b9050919050565b60006020820190508181036000830152611f9581611c30565b9050919050565b60006020820190508181036000830152611fb581611c53565b9050919050565b60006020820190508181036000830152611fd581611c76565b9050919050565b60006020820190508181036000830152611ff581611c99565b9050919050565b6000602082019050818103600083015261201581611cbc565b9050919050565b6000602082019050818103600083015261203581611cdf565b9050919050565b6000602082019050818103600083015261205581611d25565b9050919050565b6000602082019050818103600083015261207581611d48565b9050919050565b6000602082019050818103600083015261209581611d6b565b9050919050565b600060208201905081810360008301526120b581611d8e565b9050919050565b60006020820190506120d16000830184611db1565b92915050565b60006040820190506120ec6000830185611db1565b6120f96020830184611db1565b9392505050565b60006020820190506121156000830184611dc0565b92915050565b600081519050919050565b600081905092915050565b600082825260208201905092915050565b600061214d82612295565b915061215883612295565b9250827fffffffffffffffffffffffffffffffffffffffffffffffffffffffffffffffff0382111561218d5761218c612311565b5b828201905092915050565b60006121a382612295565b91506121ae83612295565b9250826121be576121bd612340565b5b828204905092915050565b60006121d482612295565b91506121df83612295565b9250817fffffffffffffffffffffffffffffffffffffffffffffffffffffffffffffffff048311821515161561221857612217612311565b5b828202905092915050565b600061222e82612295565b915061223983612295565b92508282101561224c5761224b612311565b5b828203905092915050565b600061226282612275565b9050919050565b60008115159050919050565b600073ffffffffffffffffffffffffffffffffffffffff82169050919050565b6000819050919050565b600060ff82169050919050565b60005b838110156122ca5780820151818401526020810190506122af565b838111156122d9576000848401525b50505050565b600060028204905060018216806122f757607f821691505b6020821081141561230b5761230a61236f565b5b50919050565b7f4e487b7100000000000000000000000000000000000000000000000000000000600052601160045260246000fd5b7f4e487b7100000000000000000000000000000000000000000000000000000000600052601260045260246000fd5b7f4e487b7100000000000000000000000000000000000000000000000000000000600052602260045260246000fd5b6000601f19601f8301169050919050565b7f45524332303a207472616e7366657220746f20746865207a65726f206164647260008201527f6573730000000000000000000000000000000000000000000000000000000000602082015250565b7f456e7465722070726f70657220616d6f756e7400000000000000000000000000600082015250565b7f45524332303a206275726e20616d6f756e7420657863656564732062616c616e60008201527f6365000000000000000000000000000000000000000000000000000000000000602082015250565b7f45524332303a20617070726f766520746f20746865207a65726f20616464726560008201527f7373000000000000000000000000000000000000000000000000000000000000602082015250565b7f5472616e73666572206661696c65640000000000000000000000000000000000600082015250565b7f596f7520646f6e277420686176652074686973206d75636820616d6f756e7400600082015250565b7f45524332303a20696e73756666696369656e7420616c6c6f77616e6365000000600082015250565b7f45524332303a207472616e7366657220616d6f756e742065786365656473206260008201527f616c616e63650000000000000000000000000000000000000000000000000000602082015250565b7f416d6f756e74206f6620657468657265756d206973206e6f742073756666696360008201527f69656e7400000000000000000000000000000000000000000000000000000000602082015250565b7f496e76616c696420526573657276657300000000000000000000000000000000600082015250565b7f496e73756666696369656e742066756e64730000000000000000000000000000600082015250565b7f45524332303a206275726e2066726f6d20746865207a65726f2061646472657360008201527f7300000000000000000000000000000000000000000000000000000000000000602082015250565b7f45524332303a207472616e736665722066726f6d20746865207a65726f20616460008201527f6472657373000000000000000000000000000000000000000000000000000000602082015250565b50565b7f416464656420616d6f756e74206e6f7420696e2070726f70657220726174696f60008201527f6e00000000000000000000000000000000000000000000000000000000000000602082015250565b7f45524332303a20617070726f76652066726f6d20746865207a65726f2061646460008201527f7265737300000000000000000000000000000000000000000000000000000000602082015250565b7f45524332303a2064656372656173656420616c6c6f77616e63652062656c6f7760008201527f207a65726f000000000000000000000000000000000000000000000000000000602082015250565b7f45524332303a206d696e7420746f20746865207a65726f206164647265737300600082015250565b6127f081612257565b81146127fb57600080fd5b50565b61280781612269565b811461281257600080fd5b50565b61281e81612295565b811461282957600080fd5b5056fea264697066735822122004a3a3583ac104621b402ab57f66c1fd3eae976ec2c5bf88c27e7927aa012d9764736f6c63430008040033",
  "devdoc": {
    "kind": "dev",
    "methods": {
      "addLiquidity(uint256)": {
        "details": "Adds liquidity to the exchange."
      },
      "allowance(address,address)": {
        "details": "See {IERC20-allowance}."
      },
      "approve(address,uint256)": {
        "details": "See {IERC20-approve}. NOTE: If `amount` is the maximum `uint256`, the allowance is not updated on `transferFrom`. This is semantically equivalent to an infinite approval. Requirements: - `spender` cannot be the zero address."
      },
      "balanceOf(address)": {
        "details": "See {IERC20-balanceOf}."
      },
      "decimals()": {
        "details": "Returns the number of decimals used to get its user representation. For example, if `decimals` equals `2`, a balance of `505` tokens should be displayed to a user as `5.05` (`505 / 10 ** 2`). Tokens usually opt for a value of 18, imitating the relationship between Ether and Wei. This is the value {ERC20} uses, unless this function is overridden; NOTE: This information is only used for _display_ purposes: it in no way affects any of the arithmetic of the contract, including {IERC20-balanceOf} and {IERC20-transfer}."
      },
      "decreaseAllowance(address,uint256)": {
        "details": "Atomically decreases the allowance granted to `spender` by the caller. This is an alternative to {approve} that can be used as a mitigation for problems described in {IERC20-approve}. Emits an {Approval} event indicating the updated allowance. Requirements: - `spender` cannot be the zero address. - `spender` must have allowance for the caller of at least `subtractedValue`."
      },
      "getAmountOfTokens(uint256,uint256,uint256)": {
        "details": "Returns the amount Eth/Crypto Dev tokens that would be returned to the user in the swap"
      },
      "getReserve()": {
        "details": "returns the reserve of Crypto Dev Token"
      },
      "increaseAllowance(address,uint256)": {
        "details": "Atomically increases the allowance granted to `spender` by the caller. This is an alternative to {approve} that can be used as a mitigation for problems described in {IERC20-approve}. Emits an {Approval} event indicating the updated allowance. Requirements: - `spender` cannot be the zero address."
      },
      "name()": {
        "details": "Returns the name of the token."
      },
      "removeLiquidity(uint256)": {
        "details": "Returns the amount Eth/Crypto Dev tokens that would be returned to the user in the swap"
      },
      "symbol()": {
        "details": "Returns the symbol of the token, usually a shorter version of the name."
      },
      "totalSupply()": {
        "details": "See {IERC20-totalSupply}."
      },
      "transfer(address,uint256)": {
        "details": "See {IERC20-transfer}. Requirements: - `to` cannot be the zero address. - the caller must have a balance of at least `amount`."
      },
      "transferFrom(address,address,uint256)": {
        "details": "See {IERC20-transferFrom}. Emits an {Approval} event indicating the updated allowance. This is not required by the EIP. See the note at the beginning of {ERC20}. NOTE: Does not update the allowance if the current allowance is the maximum `uint256`. Requirements: - `from` and `to` cannot be the zero address. - `from` must have a balance of at least `amount`. - the caller must have allowance for ``from``'s tokens of at least `amount`."
      }
    },
    "version": 1
  },
  "userdoc": {
    "kind": "user",
    "methods": {},
    "version": 1
  },
  "storageLayout": {
    "storage": [
      {
        "astId": 15,
        "contract": "contracts/Exchange.sol:Exchange",
        "label": "_balances",
        "offset": 0,
        "slot": "0",
        "type": "t_mapping(t_address,t_uint256)"
      },
      {
        "astId": 21,
        "contract": "contracts/Exchange.sol:Exchange",
        "label": "_allowances",
        "offset": 0,
        "slot": "1",
        "type": "t_mapping(t_address,t_mapping(t_address,t_uint256))"
      },
      {
        "astId": 23,
        "contract": "contracts/Exchange.sol:Exchange",
        "label": "_totalSupply",
        "offset": 0,
        "slot": "2",
        "type": "t_uint256"
      },
      {
        "astId": 25,
        "contract": "contracts/Exchange.sol:Exchange",
        "label": "_name",
        "offset": 0,
        "slot": "3",
        "type": "t_string_storage"
      },
      {
        "astId": 27,
        "contract": "contracts/Exchange.sol:Exchange",
        "label": "_symbol",
        "offset": 0,
        "slot": "4",
        "type": "t_string_storage"
      },
      {
        "astId": 717,
        "contract": "contracts/Exchange.sol:Exchange",
        "label": "cryptoDevTokenAddress",
        "offset": 0,
        "slot": "5",
        "type": "t_address"
      }
    ],
    "types": {
      "t_address": {
        "encoding": "inplace",
        "label": "address",
        "numberOfBytes": "20"
      },
      "t_mapping(t_address,t_mapping(t_address,t_uint256))": {
        "encoding": "mapping",
        "key": "t_address",
        "label": "mapping(address => mapping(address => uint256))",
        "numberOfBytes": "32",
        "value": "t_mapping(t_address,t_uint256)"
      },
      "t_mapping(t_address,t_uint256)": {
        "encoding": "mapping",
        "key": "t_address",
        "label": "mapping(address => uint256)",
        "numberOfBytes": "32",
        "value": "t_uint256"
      },
      "t_string_storage": {
        "encoding": "bytes",
        "label": "string",
        "numberOfBytes": "32"
      },
      "t_uint256": {
        "encoding": "inplace",
        "label": "uint256",
        "numberOfBytes": "32"
      }
    }
  }
}